:060000000A1686005B28D1
:10200000090083120716871583168711071283129A
:10201000031308008312071687153C2007123C2083
:1020200087119030A20021200030A2002120340826
:10203000A20021203308A200212087153C2007168A
:10204000080083120830AA00A21B2828071229289A
:10205000071687153C208711A20DAA0B2428A20D74
:102060008316071683128715070810398711831600
:1020700007128312640008000000000008006400DA
:1020800083121F151F1942281E088000840383161F
:102090001E0883128000840303018000840308006B
:1020A000831241309F00051483160E309F000514E3
:1020B0008312031308007E200030DE000130DF00B1
:1020C0000230E0000330E1005E30840089200430FB
:1020D000DE000530DF000630E0000730E1005E3052
:1020E000840089200830DE000930DF000A30E0007B
:1020F0000B30E1005E30840089205B2883160313D7
:10210000061086108712831203130610861087129A
:1021100008000610861087120008AF20E300A420F4
:10212000840A0008AF20E300A420840A0008AF203E
:10213000E300A420840A0008AF20E300A4200614D2
:1021400087160000871208000830E2008614E30DAD
:102150000610031806148610E20BA6280800820752
:102160007E341234BC34B634D234E634EE343234F5
:10217000FE34F634FA34CE3466347E347E347E3423
:102180007E347E347E347E347E3483138312031394
:102190006400181218165630AF0021222E30AF00FE
:1021A00021223130AF0021223030AF002122211016
:1021B00029222118D72855303002031DF028292262
:1021C0002118D7283008840029222118D7288730E1
:1021D0000402031DED28B017301330088000D72803
:1021E000AA303002031DFD2829222118D7283008E3
:1021F00084000008AF002122D72800303002031DE0
:10220000C52800308A00002864000F308104831242
:10221000F8308600FF3087008316F830860085305E
:1022200087000622A1012C2187108714640000304A
:10223000A2003D3084005F2464006400B301B40157
:102240002030A019B4007B30920483167F309200B6
:102250008312B1240A208829B50142253608831645
:10226000A0008312B50A42253608A000B50AB50AB7
:10227000B50AB50A632242253608BE00B50A4225D2
:102280003608BD00B50A42253608BC00B50A013043
:10229000BB00B50A42253608C400B50A42253608F7
:1022A000C300B50A42253608C200B50A42253608E1
:1022B000CA00B50A42253608C900B50A42253608C3
:1022C000C800B50A42253608D100B50A42253608AD
:1022D000D000B50A42253608CF00B50A4225360897
:1022E000CE00B50A42253608D500B50A4225360883
:1022F000D400B50A42253608D300B50A422536086F
:10230000D200B50A422536088316A10083120800C0
:10231000640016228A246400861C9B298A150A20E0
:102320006400372164005D226400A22264008A11E7
:10233000C52464000A20861EBD21061EBF21861DFD
:10234000C121861EC32164000430AE006400861ED5
:10235000AD296400061EB22988296400F321061EF7
:10236000B72988296400F321861EB72988296400CB
:10237000AE0BA629C421ED218829FD2108000022E9
:102380000800032208000800FD2103220022ED219D
:1023900064000430AE006400861ED2296400061E6C
:1023A000D229C8296400F321AE0BCB29861EDB2974
:1023B000061EE229C8296400061EE929A325FD217D
:1023C000ED21C8296400861EE929BE250022ED21E1
:1023D000C829FD210022032208006400861EED2981
:1023E000061EED2908002F30AC006400FF30AD0060
:1023F000AD0BF829AC0BF5290800F32105100800F6
:10240000F321F3210800F321F321080083160230A1
:102410009900181118129816831298171816871712
:1024200007131812181683120313080064001812F9
:1024300018168C1E08001A08B000AF00212268226E
:1024400008008316981C222A83122F089900640022
:1024500008002110FF30AB006400FF30AA008C1A86
:10246000372AAA0B2F2AAB0B2C2A211408001A0892
:10247000B0006400080007302C05AC00AD00040873
:10248000EC00223084002922211808003008800046
:10249000840AAC0B432A22308400ED000008AC0013
:1024A0006C0884002C0880000403EC006D0AED0029
:1024B0008400AD0B4E2A08000008AF0021228403DF
:1024C000AC0B5C2A0800201E08002030B50708006D
:1024D0003008A20029222118072C3008BA00003049
:1024E0003A02031D7A2A831620088312AF002122A4
:1024F0006400080001303A02031D8A2A29222118AB
:10250000072C30088316A0008312B600B5012A25D7
:10251000640008002208831620028312031D0800AD
:1025200002303A02031DA62A0230B50042253608C1
:10253000AF002122B50A42253608AF002122B50A94
:1025400042253608AF0021226400080003303A0219
:10255000031DBA2A733084000330AC003B222118DB
:10256000072C733084000230B5000330AC008025A6
:102570006400080004303A02031DC32A2008AF009B
:1025800021226400080005303A02031DD32A2922C3
:102590002118072C3008A000B6000130B5002A250C
:1025A0002C216400080006303A02031DE52A3E3063
:1025B00084000330AC005C220830B5006322422561
:1025C0003608AF0021226400080007303A02031DDC
:1025D000FF2A3E3084000430AC003B222118072C37
:1025E0003E3084000530B50063220430AC00802505
:1025F0000430A2003D3084005F24640008000830ED
:102600003A02031D0A2B413084000330AC005C22E7
:102610006400080009303A02031D152B4430840081
:102620000330AC005C22640008000A303A02031D4B
:102630002F2B443084000330AC003B222118072CA0
:10264000443084000930B50063220330AC0080259B
:102650000530A200433084005F24640008000B3082
:102660003A02031D3A2B473084000330AC005C2251
:10267000640008000C303A02031D452B4A308400E8
:102680000330AC005C22640008000D303A02031DE8
:102690005F2B4A3084000330AC003B222118072C0A
:1026A0004A3084000C30B50063220330AC00802532
:1026B0000630A200493084005F24640008000E3018
:1026C0003A02031D6A2B4D3084000330AC005C22BB
:1026D000640008000F303A02031D752B343084006B
:1026E0000230AC005C226400080010303A02031D86
:1026F000832B343084000230AC003B222118072C9D
:102700000A206400080011303A02031D8A2B0000E1
:102710006400080012303A02031D952B51308400EA
:102720000430AC005C226400080013303A02031D40
:10273000AA2B513084000430AC003B222118072C16
:10274000513084000F30B50063220430AC00802586
:102750006400080014303A02031DB12BA325640065
:10276000080015303A02031DBC2B5530840004309C
:10277000AC005C226400080016303A02031DD12B25
:10278000553084000430AC003B222118072C553012
:1027900084001330B50063220430AC00802564004F
:1027A000080017303A02031DD82BBE25640008002C
:1027B00018303A02031DE52B1730B500632242257D
:1027C0003608AF0021226400080019303A02031DC8
:1027D000F52B29222118072C1730B5006322300869
:1027E000B6002A25B124640008001A303A02031DFD
:1027F000FC2B0A24640008001B303A02031D052C40
:1028000025242118072C6400080003220800032255
:10281000032208000E30B700B801373084008A1553
:1028200000208A114E30A2000F30A3000130B707FC
:1028300000300318013EB8076C253908AF0021228B
:10284000A30B162CA20B142C08000E30B700B801F5
:10285000373084008A1500208A114E30A2000F30D4
:10286000A3000130B70700300318013EB807292242
:10287000211808003008B9004F25A30B312CA20BFA
:102880002F2C08000830AA008712B11F492C86148B
:102890004A2C86108716B10DAA0B442CB10D0800E6
:1028A0000830AA0000008712B20D87160000071D2D
:1028B0005B2C32145C2C3210AA0B522C08008710AF
:1028C0000000871420302204B10042240030B100FF
:1028D000422410302204B10042240314801F03104C
:1028E000840A0008B1003110B1100318B1140310AC
:1028F000B10D4224080007187B2C3830B100422467
:10290000502432088000840350243208800084035D
:10291000800108000030A200BB0BA12C8710000032
:10292000871464000830B50042253608BB0000302B
:10293000A200493084005F2464004D3084003F20B1
:102940006400413084007B24640008008316A201E7
:10295000A301A401A501A601A701A801A901831251
:1029600008001730B500632242253608FF390319E5
:10297000C22C1219080036088316A1008312910197
:10298000121508001211A62408001219CF2C8A155E
:10299000B1238A117308B4007408B30008008316C9
:1029A0002208F9002308FA002408FB002508FC008F
:1029B00083128A1517258A1183167008A2007108E0
:1029C000A3007208A4007308A5002608F0002708D9
:1029D000F1002808F2002908F3007F30F900FA011D
:1029E000FB01FC0183128A1517258A1183167008D2
:1029F000A6007108A7007208A8007308A900831236
:102A00008C1C08008C108316A10B282D8312173004
:102A1000B5006322422536088316A1002208F00083
:102A20002308F1002408F2002508F3002608F90025
:102A30002708FA002808FB002908FC0083128A15E1
:102A40008024B1238A11A6247308B4007408B3004B
:102A5000831208003508831203178D00031336080C
:102A600003178C0083168C130C1555308D00AA307B
:102A70008D008C148C183A2D0C11031383120D1237
:102A8000640008003508831203178D0083168C1329
:102A90000C1483120C080313B600640008003808F5
:102AA000831203178F000313370803178D003F307D
:102AB0008E000313390803178C0083168C170C152E
:102AC00055308D00AA308D008C14000000000C11D0
:102AD00003138312640008003808831203178F0061
:102AE0000313370803178D0083168C170C1400008E
:102AF000000083120C0883120313B900640008005D
:102B00000008B6002A258403B50AAC0B802D080006
:102B10000430AC006C2539088000840A0130B70706
:102B200000300318013EB807AC0B8A2D0800503066
:102B3000B700B801373084008A1500208A11703040
:102B40008400882508008A150A20372113218A115C
:102B500097258A1515258A117008D1007108D000B3
:102B60007208CF007308CE00513084000F30B500DA
:102B700063220430AC008025640008008A150A2016
:102B800037211C218A1197258A1513212521152506
:102B90008A115108F9005008FA004F08FB004E084E
:102BA000FC008A1517251C218A1197258A151321E7
:102BB0008A110F30B700B801373084008A15002021
:102BC0008A116C2539080F39AC005030B700B801B4
:102BD000373084008A1500208A110430B70700308E
:102BE0000318013EB807AC0BED2D7030840088252A
:102BF0008A1515252E2180248A117008D5007108A8
:102C0000D4007208D3007308D2008A1155308400B2
:102C10001330B50063220430AC0080256400080046
:10300000201E0800B0308007840A04300318013EF7
:10301000800708000F30B700B80137308400002067
:103020008A116C258A15390E0F39D6001430B70075
:10303000B801373084000020D030DA00DB015A308C
:1030400084000020F101F2014D08F3004C08F40067
:1030500003231321703084008A1188258A151525D1
:10306000F11F40284030DA0700300318013EDB072B
:10307000D60B2228C030DA07FF300318013EDB07E9
:10308000F830B707FF300318013EB807D23084008C
:103090008A1188258A15D63084008A1188258A15D8
:1030A0000F30B700B8013730840000208A116C253A
:1030B0008A1539080F39D6005430DC00DD015C3048
:1030C00084000020A120F101F2014108F300400832
:1030D000F4000323132183165E08F0005F08F1005B
:1030E0006008F2006108F30083121525F11F8C2897
:1030F0000430DA0700300318013EDB070430DC0738
:1031000000300318013EDD07D60B6228FC30DC07D7
:10311000FF300318013EDD07FC30DC07FF300318E9
:10312000013EDD075C08B7005D08B800DA308400B6
:103130008A1188258A15DE3084008A1188258A152F
:1031400008005A08B7005B08B800CA3084008A112A
:1031500088258A15CE3084008A1188258A155A0858
:10316000B7005B08B800C030B707FF300318013E56
:10317000B807C23084008A1188258A15C6308400B9
:103180008A1188258A1583164A08F0004B08F10039
:103190004C08F2004D08F3004208F9004308FA0019
:1031A0004408FB004508FC00831215258316F11B1B
:1031B000E2284208DA004308DB004408DC00450846
:1031C000DD00EA284A08DA004B08DB004C08DC0086
:1031D0004D08DD004608F0004708F1004808F200FD
:1031E0004908F3004E08F9004F08FA005008FB00A8
:1031F0005108FC00831215258316F11B0929460886
:10320000DE004708DF004808E0004908E1008312BB
:1032100008004E08DE004F08DF005008E0005108AB
:10322000E100831208007008F9007108FA007208C2
:10323000FB007308FC0008007008A5007108A400DA
:103240007208A3007308A20008002508F0002408F3
:10325000F1002308F2002208F30008002508F90015
:103260002408FA002308FB002208FC000800A1142F
:1032700083165608F9005708FA005808FB00590849
:10328000FC008312F101F2014D08F3004C08F40038
:103290000323152583167008B6007108B70072085D
:1032A000B8007308B9005208F9005308FA0054082E
:1032B000FB005508FC008312F101F2014D08F300F8
:1032C0004C08F4000323152583167008B20071081A
:1032D000B3007208B4007308B5005608F900570827
:1032E000FA005808FB005908FC005208F000530887
:1032F000F1005408F2005508F300831215258316D7
:103300007008AE007108AF007208B0007308B10019
:103310004208BA004308BB004408BC004508BD0091
:103320004A08BE004B08BF004C08C0004D08C10051
:103330008312A114EC2183167008AA007108AB0057
:103340007208AC007308AD004608BA004708BB001D
:103350004808BC004908BD004E08BE004F08BF0029
:103360005008C0005108C1008312EC218316700878
:10337000B6007108B7007208B8007308B9002A08CF
:10338000B2002B08B3002C08B4002D08B50083123E
:103390004008F4004108F300F201F1010323831611
:1033A0007008AE007108AF007208B0007308B10079
:1033B0005A08BA005B08BB005C08BC005D08BD0091
:1033C0005E08BE005F08BF006008C0006108C10061
:1033D0008312A110EC21080083163608F00037088C
:1033E000F1003808F2003908F3008312A118052A09
:1033F00083162E08F9002F08FA003008FB00310868
:10340000FC00831215258030F10683163A08F90076
:103410003B08FA003C08FB003D08FC008312222414
:103420001C2183163208F0003308F1003408F20042
:103430003508F3008312A1182A2A83162E08F900F2
:103440002F08FA003008FB003108FC008312152514
:103450008030F10683163E08F9003F08FA00400864
:10346000FB004108FC00831222241321252115258D
:103470001C21A118502A83163208F0003308F100ED
:103480003408F2003508F3003608F9003708FA006E
:103490003808FB003908FC008312152513215A2A2D
:1034A00083162E08F9002F08FA003008FB003108B7
:1034B000FC00831225218024080083221C21FB01AB
:1034C000FC018B30F9006030FA0025211525F11F31
:1034D000702A8B30F0006030F100F201F301080037
:1034E000F201F3018E30F0003030F1002E2115256D
:1034F000F11F812A8E30F0003030F100F201F3012B
:1035000008002521080013218A1197258A15152501
:103510008030F1065108F9005008FA004F08FB000E
:103520004E08FC0017255508F9005408FA00530806
:10353000FB005208FC00222413218A1197258A15CA
:10354000172508002018C02AA01C08008C30F9009C
:10355000FA01FB01FC011525F11FB22AF001F1016E
:10356000F201F3018E30F900FA01FB01FC01222483
:10357000B4258C30F900FA01FB01FC011725080085
:1035800013218E30F0004030F100F201F3011525D7
:1035900008009630F000FF01F11FD72AF309F20965
:1035A000F109F30A0319F20A0319F10AFF17EC01F2
:1035B0007108031DEC2A7208F1007308F200F30190
:1035C000EC157108031DEC2A7208F100F201EC11F0
:1035D0006C1671080319FD2A6C08F002031D031C08
:1035E000082D0310F11BFA2AF30DF20DF10DF00B6B
:1035F000F22A082DFF1FF1130034F101F201F3014B
:10360000F401F00100349E30F000FF01F11F142B93
:10361000F409F309F209F109F40A0319F30A031989
:10362000F20A0319F10AFF17EC017108031D342B8C
:103630007208F1007308F2007408F300F401EC154D
:103640007108031D342B7208F1007308F200F301B6
:10365000EC116C167108031D342B7208F100F20195
:10366000EC1571080319FD2A6C08F002031D031CF8
:10367000082D0310F11B432BF40DF30DF20DF10D8A
:10368000F00B3A2B082D7E1B731CFA2AF41FFA2A22
:10369000F30A0319F20A0319F10A031DFA2AF10CBD
:1036A000F20CF30CF00A0319752CFA2A70080319AE
:1036B00000347108FF00F1179630F002F01FA52BBF
:1036C000F009F00A08307002031C812BF000F30DA2
:1036D0007208F3007108F200F10108307002031C57
:1036E000812BF000F30D7208F300F2010830700234
:1036F000031C812BF000F30DF3017008031D031070
:103700008A2B700803198A2B0310F10CF20CF30CAE
:10371000F00B842B7E1B731C962B031C962BF30A39
:103720000319F20A0319F10AF11BA52BFF1F00343C
:10373000F109F209F309F30A0319F20A0319F10A6C
:103740000034F101F201F30100347E14FE1FFF3456
:10375000F101FF1FFF30F100F200F300FF0DF10C4B
:10376000FF34F4017008031900347108FF00F117E9
:103770009E30F002F01F152CF009F00A083070029C
:10378000031CEA2BF000F40D7308F4007208F30038
:103790007108F200F10108307002031CEA2BF000FE
:1037A000F40D7308F4007208F300F201083070029F
:1037B000031CEA2BF000F40D7308F400F301083049
:1037C0007002031CEA2BF000F40DF4017008031DD5
:1037D0000310F42B70080319F42B0310F10CF20CF6
:1037E000F30CF40CF00BED2B7E1B741C022C031C51
:1037F000022CF40A0319F30A0319F20A0319F10A55
:10380000F11BA52BFF1F0034F109F209F309F4099C
:10381000F40A0319F30A0319F20A0319F10A00342E
:10382000F101F201F301F40100347E14FE1FFF34B4
:10383000F101FF1FFF30F100F200F300F400FF0D73
:10384000F10CFF347008031D79080319FD2A710873
:103850007A06FF007908F0077E30031C332CF00253
:103860000318752C362CF002031C082D7108F40087
:103870007208F5007308F600F417FA170310F10147
:10388000F201F3011830EC00761C502C7C08F30791
:103890007B0803187B0FF2077A0803187A0FF107E9
:1038A000F10CF20CF30CF40CF50CF60C0310EC0B11
:1038B000442CF11B602CF40DF30DF20DF10DF0030F
:1038C0007E1B731C722CF41F722CF30A0319F20A6C
:1038D0000319F10A031D722CF10CF20CF30CF00A1F
:1038E0000319752CFF1FF1130034FE14FE1FFF3463
:1038F000FF30F000F100F200F300FF0DF10CFF3497
:1039000079080319132D70080319FD2A71087A0626
:10391000FF00F117FA17EC017108F4007208F500C6
:103920007308F6007C08F6027B08031C7B0FF50287
:103930007A08031C7A0FF402F401F501F601031C66
:10394000A82C0310F10CF20CF30CF40C0130EC0079
:103950007908F002031CB22C7E306C07F0070318C4
:10396000752CB72C7E306C07F007031C082D18301F
:10397000ED00F60DF50DF40DF30DF20DF10DEC0D5E
:103980007C08F3027B08031C7B0FF2027A08031CFD
:103990007A0FF1027A0DEC046C1CD02C7614DB2C1F
:1039A0007C08F3077B0803187B0FF2077A080318DB
:1039B0007A0AF1077610ED0BB92C7E1B761CFF2CD2
:1039C0000310F30DF20DF10DEC0D7C08F3027B08F2
:1039D000031C7B0FF2027A08031C7A0FF1027A0DA6
:1039E0006C040139F6070318F50A0319F40A031DDC
:1039F000FF2CF40CF50CF60CF00A0319752CFF1FC4
:103A0000F4137408F1007508F2007608F30000342E
:103A10007E15FE1FFF340130F000F101F201F301C9
:103A2000FF0DF10CFF34FE15FF348030FA067108EB
:103A30007A06EC00F401FD0170087902031C382DB0
:103A40007908F6007008F9007608F0007A08F600A8
:103A50007108FA007608F1007B08F6007208FB0096
:103A60007608F2007C08F6007308FC007608F30084
:103A70007908031900347108FF00F117FA17790863
:103A80007002F90003196B2D08307902031C612DB7
:103A9000F9007C08FD007B08FC007A08FB00FA01B5
:103AA00008307902031C612DF9007C08FD007B08B9
:103AB000FC00FB0108307902031C612D7F08F10036
:103AC0000034790803196B2D0310FA0CFB0CFC0C65
:103AD000FD0CF90B642DEC1F782DFD09FC09FB0989
:103AE000FA09FD0A0319FC0A0319FB0A0319FA0A69
:103AF0007D08F4077C0803187C0FF3077B08031884
:103B00007B0FF2077A0803187A0FF107EC1B912D4F
:103B1000031C432BF10CF20CF30CF40CF00F432BB1
:103B2000752C0318142BF409F309F209F109F40AAE
:103B30000319F30A0319F20A0319F10A8030FF0688
:103B4000D72A2608F9002708FA002808FB002908C8
:103B5000FC00831208007008A6007108A700720814
:103B6000A8007308A9000800F11B0800F008031959
:103B700008002111A111701C21157008EB007F3085
:103B8000EB02031CC72D0310EB0CEB07D02DA11586
:103B90006B09013EEB000310EB0C6B09803EEB0060
:103BA0007F30F000A600A701A801A9011C21053063
:103BB000AA002521A1258024A1251725F003AB25E6
:103BC000AA0BD92D6B08F900FA01FB01FC01222494
:103BD000211D08007F30F900A119F9033530FA00E2
:0C3BE0000430FB00F330FC00222408003D
:10420000000000000000000000002C00E000E800BA
:1042100032002C002300E80020008300E8000000AA
:104220000000000000007F0000000000000000000F
:06424A003C002300E80027
:1042500032002C002300E80020008300E80000006A
:104260000000000000007F000000000000000000CF
:00000001FF
