:020000001028C6
:1000200064000F3081048312F8308600FF308700AF
:100030008316F83086008530870060208313831292
:1000400003136400181218165630AF007A202E30B1
:10005000AF007A203130AF007A203030AF007A2004
:1000600064001812181621108220211830285530EB
:100070003002031D4C2882202118302830088400CB
:1000800082202118302887300402031D4928B01728
:100090003013300880003028AA303002031D592860
:1000A000822021183028300884000008AF007A2010
:1000B000302800303002031D1E2800308A0000283E
:1000C0008316023099001811181298168312981787
:1000D000181687170713181218168312031308002F
:1000E0006400181218168C1E08001A08B000AF0021
:1000F0007A2008008316981C7B2883122F08990009
:10010000640008002110FF30AB006400FF30AA003B
:100110008C1A9028AA0B8828AB0B8528211408007C
:100120001A08B0006400080007302C05AC00AD00D0
:100130000408EC00223084008220211808003008D6
:100140008000840AAC0B9C2822308400ED0000085B
:10015000AC006C0884002C0880000403EC006D0ADD
:10016000ED008400AD0BA72808000008AF007A203E
:080170008403AC0BB528080064
:02400E003D3D36
:00000001FF
