:060000000A1686005B28D1
:10200000090083120716871583168711071283129A
:10201000031308008312071687153C2007123C2083
:1020200087119030A20021200030A2002120340826
:10203000A20021203308A200212087153C2007168A
:10204000080083120830AA00A21B2828071229289A
:10205000071687153C208711A20DAA0B2428A20D74
:102060008316071683128715070810398711831600
:1020700007128312640008000000000008006400DA
:1020800083121F151F1942281E088000840383161F
:102090001E0883128000840303018000840308006B
:1020A000831241309F00051483160E309F000514E3
:1020B00083120313080064007F200030DE0001302B
:1020C000DF000230E0000330E1005E3084008A204F
:1020D0000430DE000530DF000630E0000730E100AC
:1020E0005E3084008A200830DE000930DF000A30CC
:1020F000E0000B30E1005E3084008A205B2883160C
:10210000031306108610871283120313061086101D
:10211000871208000610861087120008B020E3001E
:10212000A520840A0008B020E300A520840A000846
:10213000B020E300A520840A0008B020E300A52019
:10214000061487160000871208000830E200861483
:10215000E30D0610031806148610E20BA7280800EA
:1021600082077E341234BC34B634D234E634EE34D2
:102170003234FE34F634FA34CE3466347E347E346F
:102180007E347E347E347E347E347E3483138312F8
:1021900003136400181218165630AF0022222E3096
:1021A000AF0022223130AF0022223030AF00222295
:1021B00021102A222118D82855303002031DF12879
:1021C0002A222118D828300884002A222118D82849
:1021D00087300402031DEE28B0173013300880004A
:1021E000D828AA303002031DFE282A222118D82818
:1021F000300884000008AF002222D82800303002C6
:10220000031DC62800308A00002864000F308104B6
:102210008312F8308600FF3087008316F83086007E
:10222000853087000722A1012D21871087146400C3
:102230000030A2003D308400602464006400B301DB
:10224000B4012030A019B4007B30920483167F3093
:1022500092008312B2240A208929B5014325360849
:102260008316A0008312B50A43253608A000B50ADC
:10227000B50AB50AB50A642243253608BE00B50A78
:1022800043253608BD00B50A43253608BC00B50A0B
:102290000130BB00B50A43253608C400B50A432502
:1022A0003608C300B50A43253608C200B50A4325DF
:1022B0003608CA00B50A43253608C900B50A4325C1
:1022C0003608C800B50A43253608D100B50A4325AB
:1022D0003608D000B50A43253608CF00B50A432595
:1022E0003608CE00B50A43253608D500B50A432581
:1022F0003608D400B50A43253608D300B50A43256D
:102300003608D200B50A432536088316A100831289
:102310000800640017228B246400861C9C298A15FF
:102320000A206400372164005D226400A222640058
:102330008A11C62464000A20861EBE21061EC02102
:10234000861DC221861EC42164000430AE006400D4
:10235000861EAE296400061EB32989296400F42173
:10236000061EB82989296400F421861EB829892906
:102370006400AE0BA729C521EE218929FE210800A2
:1023800001220800042208000800FE210422012284
:10239000EE2164000430AE006400861ED329640080
:1023A000061ED329C9296400F421AE0BCC29861E50
:1023B000DC29061EE329C9296400061EEA29A42592
:1023C000FE21EE21C9296400861EEA29BF250122CB
:1023D000EE21C929FE210122042208006400861E84
:1023E000EE29061EEE2908002F30AC006400FF30F5
:1023F000AD00AD0BF929AC0BF6290800F42105104E
:102400000800F421F4210800F421F42108008316C7
:10241000023099001811181298168312981718167E
:102420008717071318121816831203130800640085
:10243000181218168C1E08001A08B000AF002222CD
:10244000692208008316981C232A83122F089900FA
:10245000640008002110FF30AB006400FF30AA00C8
:102460008C1A382AAA0B302AAB0B2D2A211408000B
:102470001A08B0006400080007302C05AC00AD005D
:102480000408EC00223084002A22211808003008B9
:102490008000840AAC0B442A22308400ED0000083E
:1024A000AC006C0884002C0880000403EC006D0A6A
:1024B000ED008400AD0B4F2A08000008AF00222277
:1024C0008403AC0B5D2A0800201E08002030B507ED
:1024D00008003008A2002A222118082C3008BA006F
:1024E00000303A02031D7B2A831620088312AF00B6
:1024F00022226400080001303A02031D8B2A2A229E
:102500002118082C30088316A0008312B600B501EC
:102510002B25640008002208831620028312031D65
:10252000080002303A02031DA72A0230B5004325F5
:102530003608AF002222B50A43253608AF00222212
:10254000B50A43253608AF00222264000800033094
:102550003A02031DBB2A733084000330AC003C22D6
:102560002118082C733084000230B5000330AC0011
:1025700081256400080004303A02031DC42A2008A3
:10258000AF0022226400080005303A02031DD42A5D
:102590002A222118082C3008A000B6000130B5000E
:1025A0002B252D216400080006303A02031DE62A7F
:1025B0003E3084000330AC005D220830B500642258
:1025C00043253608AF0022226400080007303A0293
:1025D000031D002B3E3084000430AC003C22211847
:1025E000082C3E3084000530B50064220430AC0075
:1025F00081250430A2003D3084006024640008007E
:1026000008303A02031D0B2B413084000330AC002C
:102610005D226400080009303A02031D162B443085
:1026200084000330AC005D22640008000A303A02E6
:10263000031D302B443084000330AC003C222118B1
:10264000082C443084000930B50064220330AC000B
:1026500081250530A2004330840060246400080016
:102660000B303A02031D3B2B473084000330AC0093
:102670005D22640008000C303A02031D462B4A30EC
:1026800084000330AC005D22640008000D303A0283
:10269000031D602B4A3084000330AC003C2221181B
:1026A000082C4A3084000C30B50064220330AC00A2
:1026B00081250630A20049308400602464000800AF
:1026C0000E303A02031D6B2B4D3084000330AC00FA
:1026D0005D22640008000F303A02031D762B34306F
:1026E00084000230AC005D226400080010303A0221
:1026F000031D842B343084000230AC003C222118AE
:10270000082C0A206400080011303A02031D8B2BAC
:1027100000006400080012303A02031D962B51306D
:1027200084000430AC005D226400080013303A02DB
:10273000031DAB2B513084000430AC003C22211827
:10274000082C513084000F30B50064220430AC00F6
:1027500081256400080014303A02031DB22BA42521
:102760006400080015303A02031DBD2B553084006B
:102770000430AC005D226400080016303A02031DEC
:10278000D22B553084000430AC003C222118082C98
:10279000553084001330B50064220430AC0081252C
:1027A0006400080017303A02031DD92BBF256400CE
:1027B000080018303A02031DE62B1730B5006422DA
:1027C00043253608AF0022226400080019303A027F
:1027D000031DF62B2A222118082C1730B50064227D
:1027E0003008B6002B25B224640008001A303A02E3
:1027F000031DFD2B0B24640008001B303A02031D4F
:10280000062C26242118082C640008000422080045
:102810000422042208000E30B700B80137308400CB
:102820008A1500208A114E30A2000F30A30001301B
:10283000B70700300318013EB8076D253908AF000F
:102840002222A30B172CA20B152C08000E30B70068
:10285000B801373084008A1500208A114E30A2005A
:102860000F30A3000130B70700300318013EB8074E
:102870002A22211808003008B9005025A30B322C59
:10288000A20B302C08000830AA008712B11F4A2C76
:1028900086144B2C86108716B10DAA0B452CB10D52
:1028A00008000830AA0000008712B20D8716000049
:1028B000071D5C2C32145D2C3210AA0B532C08001F
:1028C00087100000871420302204B1004324003018
:1028D000B100432410302204B10043240314801FAC
:1028E0000310840A0008B1003110B1100318B114AC
:1028F0000310B10D4324080007187C2C3830B100B8
:10290000432451243208800084035124320880007B
:102910008403800108000030A200BB0BA22C8710AA
:102920000000871464000830B50043253608BB005A
:102930000030A20049308400602464004D308400DF
:102940003F206400413084007C246400080083162A
:10295000A201A301A401A501A601A701A801A90143
:10296000831208001730B500642243253608FF396A
:102970000319C32C1219080036088316A10083120C
:102980009101121508001211A72408001219D02C69
:102990008A15B1238A117308B4007408B3000800C3
:1029A00083162208F9002308FA002408FB002508F2
:1029B000FC0083128A1517258A1183167008A2005D
:1029C0007108A3007208A4007308A5002608F0008F
:1029D0002708F1002808F2002908F3007F30F900E9
:1029E000FA01FB01FC0183128A1517258A1183164F
:1029F0007008A6007108A7007208A8007308A90053
:102A000083128C1C08008C108316A10B292D8312B5
:102A10001730B5006422432536088316A10022082A
:102A2000F0002308F1002408F2002508F30026082E
:102A3000F9002708FA002808FB002908FC00831287
:102A40008A158024B1238A11A7247308B40074085E
:102A5000B300831208003508831203178D00031397
:102A6000360803178C0083168C130C1555308D0017
:102A7000AA308D008C148C183B2D0C11031383127B
:102A80000D12640008003508831203178D008316A9
:102A90008C130C1483120C080313B6006400080096
:102AA0003808831203178F000313370803178D00AC
:102AB0003F308E000313390803178C0083168C17E0
:102AC0000C1555308D00AA308D008C1400000000CC
:102AD0000C110313831264000800380883120317D3
:102AE0008F000313370803178D0083168C170C14FF
:102AF0000000000083120C0883120313B900640065
:102B000008000008B6002B258403B50AAC0B812D04
:102B100008000430AC006D2539088000840A0130BB
:102B2000B70700300318013EB807AC0B8B2D080027
:102B30005030B700B801373084008A1500208A1160
:102B400070308400892508008A150A203721132156
:102B50008A1198258A1515258A117008D1007108E7
:102B6000D0007208CF007308CE00513084000F30BF
:102B7000B50064220430AC008125640008008A1589
:102B80000A2037211C218A1198258A151321252115
:102B900015258A115108F9005008FA004F08FB006A
:102BA0004E08FC008A1517251C218A1198258A15C4
:102BB00013218A110F30B700B801373084008A150D
:102BC00000208A116D2539080F39AC005030B7004C
:102BD000B801373084008A1500208A110430B70705
:102BE00000300318013EB807AC0BEE2D70308400A6
:102BF00089258A1515252E2180248A117008D50073
:102C00007108D4007208D3007308D2008A115530BD
:102C100084001330B50064220430AC0081256400C8
:022C20000800AA
:10300000201E0800B0308007840A04300318013EF7
:10301000800708000F30B700B80137308400002067
:103020008A116D258A15390E0F39D6001430B70074
:10303000B801373084000020D030DA00DB015A308C
:1030400084000020F101F2014D08F3004C08F40067
:1030500003231321703084008A1189258A151525D0
:10306000F11F40284030DA0700300318013EDB072B
:10307000D60B2228C030DA07FF300318013EDB07E9
:10308000F830B707FF300318013EB807D23084008C
:103090008A1189258A15D63084008A1189258A15D6
:1030A0000F30B700B8013730840000208A116D2539
:1030B0008A1539080F39D6005430DC00DD015C3048
:1030C00084000020A120F101F2014108F300400832
:1030D000F4000323132183165E08F0005F08F1005B
:1030E0006008F2006108F30083121525F11F8C2897
:1030F0000430DA0700300318013EDB070430DC0738
:1031000000300318013EDD07D60B6228FC30DC07D7
:10311000FF300318013EDD07FC30DC07FF300318E9
:10312000013EDD075C08B7005D08B800DA308400B6
:103130008A1189258A15DE3084008A1189258A152D
:1031400008005A08B7005B08B800CA3084008A112A
:1031500089258A15CE3084008A1189258A155A0856
:10316000B7005B08B800C030B707FF300318013E56
:10317000B807C23084008A1189258A15C6308400B8
:103180008A1189258A1583164A08F0004B08F10038
:103190004C08F2004D08F3004208F9004308FA0019
:1031A0004408FB004508FC00831215258316F11B1B
:1031B000E2284208DA004308DB004408DC00450846
:1031C000DD00EA284A08DA004B08DB004C08DC0086
:1031D0004D08DD004608F0004708F1004808F200FD
:1031E0004908F3004E08F9004F08FA005008FB00A8
:1031F0005108FC00831215258316F11B0929460886
:10320000DE004708DF004808E0004908E1008312BB
:1032100008004E08DE004F08DF005008E0005108AB
:10322000E100831208007008F9007108FA007208C2
:10323000FB007308FC0008007008A5007108A400DA
:103240007208A3007308A20008002508F0002408F3
:10325000F1002308F2002208F30008002508F90015
:103260002408FA002308FB002208FC000800A1142F
:1032700083165608F9005708FA005808FB00590849
:10328000FC008312F101F2014D08F3004C08F40038
:103290000323152583167008B6007108B70072085D
:1032A000B8007308B9005208F9005308FA0054082E
:1032B000FB005508FC008312F101F2014D08F300F8
:1032C0004C08F4000323152583167008B20071081A
:1032D000B3007208B4007308B5005608F900570827
:1032E000FA005808FB005908FC005208F000530887
:1032F000F1005408F2005508F300831215258316D7
:103300007008AE007108AF007208B0007308B10019
:103310004208BA004308BB004408BC004508BD0091
:103320004A08BE004B08BF004C08C0004D08C10051
:103330008312A114EC2183167008AA007108AB0057
:103340007208AC007308AD004608BA004708BB001D
:103350004808BC004908BD004E08BE004F08BF0029
:103360005008C0005108C1008312EC218316700878
:10337000B6007108B7007208B8007308B9002A08CF
:10338000B2002B08B3002C08B4002D08B50083123E
:103390004008F4004108F300F201F1010323831611
:1033A0007008AE007108AF007208B0007308B10079
:1033B0005A08BA005B08BB005C08BC005D08BD0091
:1033C0005E08BE005F08BF006008C0006108C10061
:1033D0008312A110EC21080083163608F00037088C
:1033E000F1003808F2003908F3008312A118052A09
:1033F00083162E08F9002F08FA003008FB00310868
:10340000FC00831215258030F10683163A08F90076
:103410003B08FA003C08FB003D08FC008312222414
:103420001C2183163208F0003308F1003408F20042
:103430003508F3008312A1182A2A83162E08F900F2
:103440002F08FA003008FB003108FC008312152514
:103450008030F10683163E08F9003F08FA00400864
:10346000FB004108FC00831222241321252115258D
:103470001C21A118502A83163208F0003308F100ED
:103480003408F2003508F3003608F9003708FA006E
:103490003808FB003908FC008312152513215A2A2D
:1034A00083162E08F9002F08FA003008FB003108B7
:1034B000FC00831225218024080083221C21FB01AB
:1034C000FC018B30F9006030FA0025211525F11F31
:1034D000702A8B30F0006030F100F201F301080037
:1034E000F201F3018E30F0003030F1002E2115256D
:1034F000F11F812A8E30F0003030F100F201F3012B
:1035000008002521080013218A1198258A15152500
:103510008030F1065108F9005008FA004F08FB000E
:103520004E08FC0017255508F9005408FA00530806
:10353000FB005208FC00222413218A1198258A15C9
:10354000172508002018C02AA01C08008C30F9009C
:10355000FA01FB01FC011525F11FB22AF001F1016E
:10356000F201F3018E30F900FA01FB01FC01222483
:10357000B4258C30F900FA01FB01FC011725080085
:1035800013218E30F0004030F100F201F3011525D7
:1035900008009630F000FF01F11FD72AF309F20965
:1035A000F109F30A0319F20A0319F10AFF17EC01F2
:1035B0007108031DEC2A7208F1007308F200F30190
:1035C000EC157108031DEC2A7208F100F201EC11F0
:1035D0006C1671080319FD2A6C08F002031D031C08
:1035E000082D0310F11BFA2AF30DF20DF10DF00B6B
:1035F000F22A082DFF1FF1130034F101F201F3014B
:10360000F401F00100349E30F000FF01F11F142B93
:10361000F409F309F209F109F40A0319F30A031989
:10362000F20A0319F10AFF17EC017108031D342B8C
:103630007208F1007308F2007408F300F401EC154D
:103640007108031D342B7208F1007308F200F301B6
:10365000EC116C167108031D342B7208F100F20195
:10366000EC1571080319FD2A6C08F002031D031CF8
:10367000082D0310F11B432BF40DF30DF20DF10D8A
:10368000F00B3A2B082D7E1B731CFA2AF41FFA2A22
:10369000F30A0319F20A0319F10A031DFA2AF10CBD
:1036A000F20CF30CF00A0319752CFA2A70080319AE
:1036B00000347108FF00F1179630F002F01FA52BBF
:1036C000F009F00A08307002031C812BF000F30DA2
:1036D0007208F3007108F200F10108307002031C57
:1036E000812BF000F30D7208F300F2010830700234
:1036F000031C812BF000F30DF3017008031D031070
:103700008A2B700803198A2B0310F10CF20CF30CAE
:10371000F00B842B7E1B731C962B031C962BF30A39
:103720000319F20A0319F10AF11BA52BFF1F00343C
:10373000F109F209F309F30A0319F20A0319F10A6C
:103740000034F101F201F30100347E14FE1FFF3456
:10375000F101FF1FFF30F100F200F300FF0DF10C4B
:10376000FF34F4017008031900347108FF00F117E9
:103770009E30F002F01F152CF009F00A083070029C
:10378000031CEA2BF000F40D7308F4007208F30038
:103790007108F200F10108307002031CEA2BF000FE
:1037A000F40D7308F4007208F300F201083070029F
:1037B000031CEA2BF000F40D7308F400F301083049
:1037C0007002031CEA2BF000F40DF4017008031DD5
:1037D0000310F42B70080319F42B0310F10CF20CF6
:1037E000F30CF40CF00BED2B7E1B741C022C031C51
:1037F000022CF40A0319F30A0319F20A0319F10A55
:10380000F11BA52BFF1F0034F109F209F309F4099C
:10381000F40A0319F30A0319F20A0319F10A00342E
:10382000F101F201F301F40100347E14FE1FFF34B4
:10383000F101FF1FFF30F100F200F300F400FF0D73
:10384000F10CFF347008031D79080319FD2A710873
:103850007A06FF007908F0077E30031C332CF00253
:103860000318752C362CF002031C082D7108F40087
:103870007208F5007308F600F417FA170310F10147
:10388000F201F3011830EC00761C502C7C08F30791
:103890007B0803187B0FF2077A0803187A0FF107E9
:1038A000F10CF20CF30CF40CF50CF60C0310EC0B11
:1038B000442CF11B602CF40DF30DF20DF10DF0030F
:1038C0007E1B731C722CF41F722CF30A0319F20A6C
:1038D0000319F10A031D722CF10CF20CF30CF00A1F
:1038E0000319752CFF1FF1130034FE14FE1FFF3463
:1038F000FF30F000F100F200F300FF0DF10CFF3497
:1039000079080319132D70080319FD2A71087A0626
:10391000FF00F117FA17EC017108F4007208F500C6
:103920007308F6007C08F6027B08031C7B0FF50287
:103930007A08031C7A0FF402F401F501F601031C66
:10394000A82C0310F10CF20CF30CF40C0130EC0079
:103950007908F002031CB22C7E306C07F0070318C4
:10396000752CB72C7E306C07F007031C082D18301F
:10397000ED00F60DF50DF40DF30DF20DF10DEC0D5E
:103980007C08F3027B08031C7B0FF2027A08031CFD
:103990007A0FF1027A0DEC046C1CD02C7614DB2C1F
:1039A0007C08F3077B0803187B0FF2077A080318DB
:1039B0007A0AF1077610ED0BB92C7E1B761CFF2CD2
:1039C0000310F30DF20DF10DEC0D7C08F3027B08F2
:1039D000031C7B0FF2027A08031C7A0FF1027A0DA6
:1039E0006C040139F6070318F50A0319F40A031DDC
:1039F000FF2CF40CF50CF60CF00A0319752CFF1FC4
:103A0000F4137408F1007508F2007608F30000342E
:103A10007E15FE1FFF340130F000F101F201F301C9
:103A2000FF0DF10CFF34FE15FF348030FA067108EB
:103A30007A06EC00F401FD0170087902031C382DB0
:103A40007908F6007008F9007608F0007A08F600A8
:103A50007108FA007608F1007B08F6007208FB0096
:103A60007608F2007C08F6007308FC007608F30084
:103A70007908031900347108FF00F117FA17790863
:103A80007002F90003196B2D08307902031C612DB7
:103A9000F9007C08FD007B08FC007A08FB00FA01B5
:103AA00008307902031C612DF9007C08FD007B08B9
:103AB000FC00FB0108307902031C612D7F08F10036
:103AC0000034790803196B2D0310FA0CFB0CFC0C65
:103AD000FD0CF90B642DEC1F782DFD09FC09FB0989
:103AE000FA09FD0A0319FC0A0319FB0A0319FA0A69
:103AF0007D08F4077C0803187C0FF3077B08031884
:103B00007B0FF2077A0803187A0FF107EC1B912D4F
:103B1000031C432BF10CF20CF30CF40CF00F432BB1
:103B2000752C0318142BF409F309F209F109F40AAE
:103B30000319F30A0319F20A0319F10A8030FF0688
:103B4000D72A2608F9002708FA002808FB002908C8
:103B5000FC00831208007008A6007108A700720814
:103B6000A8007308A9000800F11B0800F008031959
:103B700008002111A111701C21157008EB007F3085
:103B8000EB02031CC72D0310EB0CEB07D02DA11586
:103B90006B09013EEB000310EB0C6B09803EEB0060
:103BA0007F30F000A600A701A801A9011C21053063
:103BB000AA002521A1258024A1251725F003AB25E6
:103BC000AA0BD92D6B08F900FA01FB01FC01222494
:103BD000211D08007F30F900A119F9033530FA00E2
:0C3BE0000430FB00F330FC00222408003D
:10420000000000000000000000002C00E000E800BA
:1042100032002C002300E80020008300E8000000AA
:104220000000000000007F0000000000000000000F
:06424A003C002300E80027
:1042500032002C002300E80020008300E80000006A
:104260000000000000007F000000000000000000CF
:00000001FF
