:060000000A160130012880
:040008000A160028AC
:10200000090064000F3081048312F83086008316C3
:10201000FB3086008312FF308700831685308700EF
:10202000E0233821A101382007110715640004308E
:10203000A2003D3084008D2364000530A2004330AF
:1020400084008D2364000630A200493084008D2373
:102050006400B301B4012030A019B4007B309204B5
:1020600083167F30920083121224E1233121AE289F
:10207000B501A32436088316A0008312B50AA32451
:102080003608A000B50AB50AB50AB50A9121A324FD
:102090003608BE00B50AA3243608BD00B50AA3243D
:1020A0003608BC00B50A0130BB00B50AA3243608C7
:1020B000C400B50AA3243608C300B50AA324360811
:1020C000C200B50AA3243608CA00B50AA3243608FC
:1020D000C900B50AA3243608C800B50AA3243608E7
:1020E000D100B50AA3243608D000B50AA3243608C7
:1020F000CF00B50AA3243608CE00B50AA3243608BB
:10210000D500B50AA3243608D400B50AA32436089E
:10211000D300B50AA3243608D200B50AA324360892
:102120008316A100831208000830232183120313B1
:102130001F1564001F199A281E08800080031E08BE
:1021400080008003800108008312031301309F0088
:1021500083160313850107309F00080064004321A4
:10216000BF236400871EC1288A150A206400372116
:1021700064005D226400A22264008A1126246400A7
:10218000E123051DE320851DE520051EE720051D33
:10219000E92064000430AE006400051DD32864000B
:1021A000851DD828AE2864001921851DDD28AE289C
:1021B00064001921051DDD28AE286400AE0BCC2873
:1021C000EA201321AE28272108002C210800312104
:1021D00008000800272131212C211321640004303C
:1021E000AE006400051DF8286400851DF828EE285F
:1021F00064001921AE0BF128051D0129851D082950
:10220000EE286400851D0F29042527211321EE28BF
:102210006400051D0F291F252C211321EE282721DD
:102220002C21312108006400051D1329851D132967
:1022300008002F30AC006400FF30AD00AD0B1E294C
:10224000AC0B1B2908006400000B242908000514AE
:10225000192105101921080085141921851019214B
:10226000080005148514192105108510192108008E
:10227000831603130230990018111812981683124E
:102280009817181608006400181218168C1E0800FB
:102290001A08B000AF004E21962108008316981C42
:1022A0004F2983122F089900640008002110FF3085
:1022B000AB006400FF30AA008C1A6429AA0B5C29C9
:1022C000AB0B5929211408001A08B00099006400CA
:1022D000080007302C05AC00AD000408EC002230EB
:1022E000840056212118080030088000840AAC0BB5
:1022F000712922308400ED000008AC006C088400D5
:102300002C0880000403EC006D0AED008400AD0B86
:102310007C2908000008AF004E218403AC0B8A29F9
:102320000800201E08002030B50708003008A20071
:1023300056212118352B3008BA0000303A02031D0F
:10234000A829831620088312AF004E2164000800DC
:1023500001303A02031DB82956212118352B3008C7
:102360008316A0008312B600B5018B246400080018
:102370002208831620028312031D080002303A024D
:10238000031DD4290230B500A3243608AF004E2126
:10239000B50AA3243608AF004E21B50AA324360897
:1023A000AF004E216400080003303A02031DE82903
:1023B000733084000330AC0069212118352B733051
:1023C00084000230B5000330AC00E1246400080052
:1023D00004303A02031DF1292008AF004E216400A9
:1023E000080005303A02031D012A56212118352B19
:1023F0003008A000B6000130B5008B2438206400FE
:10240000080006303A02031D132A3E3084000330D0
:10241000AC008A210830B5009121A3243608AF0012
:102420004E216400080007303A02031D2D2A3E3079
:1024300084000430AC0069212118352B3E30840023
:102440000530B50091210430AC00E1240430A20035
:102450003D3084008D236400080008303A02031DDB
:10246000382A413084000330AC008A21640008001F
:1024700009303A02031D432A443084000330AC0083
:102480008A21640008000A303A02031D5D2A4430A4
:1024900084000330AC0069212118352B44308400BE
:1024A0000930B50091210330AC00E1240530A200D1
:1024B000433084008D23640008000B303A02031D72
:1024C000682A473084000330AC008A216400080089
:1024D0000C303A02031D732A4A3084000330AC00EA
:1024E0008A21640008000D303A02031D8D2A4A300B
:1024F00084000330AC0069212118352B4A30840058
:102500000C30B50091210330AC00E1240630A2006C
:10251000493084008D23640008000E303A02031D08
:10252000982A4D3084000330AC008A2164000800F2
:102530000F303A02031DA32A343084000230AC006D
:102540008A216400080010303A02031DB12A343099
:1025500084000230AC0069212118352BE12364008E
:10256000080011303A02031DB82A00006400080078
:1025700012303A02031DC32A513084000430AC00EB
:102580008A216400080013303A02031DD82A513012
:1025900084000430AC0069212118352B51308400AF
:1025A0000F30B50091210430AC00E1246400080034
:1025B00014303A02031DDF2A042564000800153098
:1025C0003A02031DEA2A553084000430AC008A2107
:1025D0006400080016303A02031DFF2A55308400BB
:1025E0000430AC0069212118352B5530840013309C
:1025F000B50091210430AC00E124640008001730DC
:102600003A02031D062B1F256400080018303A0209
:10261000031D132B1730B5009121A3243608AF00FA
:102620004E216400080019303A02031D232B562165
:102630002118352B1730B50091213008B6008B24B6
:102640001224640008001A303A02031D2A2B382392
:10265000640008001B303A02031D332B532321185A
:10266000352B640008003121080031213121080098
:102670000E30B700B801373084008A1500208A1167
:102680004E30A2000F30A3000130B707003003180E
:10269000013EB807CD243908AF004E21A30B442BCF
:1026A000A20B422B08000E30B700B801373084006F
:1026B0008A1500208A114E30A2000F30A30001308D
:1026C000B70700300318013EB8075621211808004B
:1026D0003008B900B024A30B5F2BA20B5D2B0800C0
:1026E0000830AA000610B11F772B8615782B8611AB
:1026F0000614B10DAA0B722BB10D08000830AA0008
:1027000000000610B20D06140000061D892B3214BD
:102710008A2B3210AA0B802B080020302204B10033
:1027200070230008B100702330302204B100702300
:1027300084030008B100702310302204B10070231C
:10274000840A840A0008B100702308008618A62BAA
:1027500058302204B10070237E23320880008403A5
:102760007E23320880008403800184038403001FD9
:102770000800840A840A7E2332088000080004309E
:10278000A200BB0BDB2B0711071564000830B50056
:10279000A3243608BB000630A200493084008D23F4
:1027A00064004D308400A62364000430A2003D3054
:1027B00084008D23640041308400A6236400080057
:1027C000080086120612A01DEC2B0730AA00861105
:1027D00006160612AA0BE82B34308400F923840372
:1027E000F923A01DF62B86110616061286168612F0
:1027F00008000830AA00801BFF2B8611002C8615CC
:1028000006160612800DAA0BFB2B800D08008316FE
:10281000A201A301A401A501A601A701A801A90184
:10282000831208001730B5009121A3243608FF3920
:102830000319232C1219080036088316A1008312ED
:102840009101121508001211072408001219302CEA
:102850008A15B1238A117308B4007408B300080004
:1028600083162208F9002308FA002408FB00250833
:10287000FC0083128A1517258A1183167008A2009E
:102880007108A3007208A4007308A5002608F000D0
:102890002708F1002808F2002908F3007F30F9002A
:1028A000FA01FB01FC0183128A1517258A11831690
:1028B0007008A6007108A7007208A8007308A90094
:1028C00083128C1C08008C108316A10B892C831298
:1028D0001730B5009121A32436088316A1002208E1
:1028E000F0002308F1002408F2002508F300260870
:1028F000F9002708FA002808FB002908FC008312C9
:102900008A158024B1238A1107247308B40074083F
:10291000B300831208003508831203178D000313D8
:10292000360803178C0083168C130C1555308D0058
:10293000AA308D008C148C189B2C0C11031383125D
:102940000D12640008003508831203178D008316EA
:102950008C130C1483120C080313B60064000800D7
:102960003808831203178F000313370803178D00ED
:102970003F308E000313390803178C0083168C1721
:102980000C1555308D00AA308D008C14000000000D
:102990000C11031383126400080038088312031714
:1029A0008F000313370803178D0083168C170C1440
:1029B0000000000083120C0883120313B9006400A6
:1029C00008000008B6008B248403B50AAC0BE12C88
:1029D00008000430AC00CD2439088000840A01309E
:1029E000B70700300318013EB807AC0BEB2C08000A
:1029F0005030B700B801373084008A1500208A11A2
:102A000070308400E92408008A150A203721132138
:102A10008A11F8248A1515258A117008D1007108C9
:102A2000D0007208CF007308CE00513084000F3000
:102A3000B50091210430AC00E124640008008A153F
:102A40000A2037211C218A11F8248A1513212521F7
:102A500015258A115108F9005008FA004F08FB00AB
:102A60004E08FC008A1517251C218A11F8248A15A6
:102A700013218A110F30B700B801373084008A154E
:102A800000208A11CD2439080F39AC005030B7002E
:102A9000B801373084008A1500208A110430B70746
:102AA00000300318013EB807AC0B4E2D7030840087
:102AB000E9248A1515252E2180248A117008D50055
:102AC0007108D4007208D3007308D2008A115530FF
:102AD00084001330B50091210430AC00E12464007F
:022AE0000800EC
:10300000201E0800B0308007840A04300318013EF7
:10301000800708000F30B700B80137308400002067
:103020008A11CD248A15390E0F39D6001430B70015
:10303000B801373084000020D030DA00DB015A308C
:1030400084000020F101F2014D08F3004C08F40067
:1030500003231321703084008A11E9248A15152571
:10306000F11F40284030DA0700300318013EDB072B
:10307000D60B2228C030DA07FF300318013EDB07E9
:10308000F830B707FF300318013EB807D23084008C
:103090008A11E9248A15D63084008A11E9248A1518
:1030A0000F30B700B8013730840000208A11CD24DA
:1030B0008A1539080F39D6005430DC00DD015C3048
:1030C00084000020A120F101F2014108F300400832
:1030D000F4000323132183165E08F0005F08F1005B
:1030E0006008F2006108F30083121525F11F8C2897
:1030F0000430DA0700300318013EDB070430DC0738
:1031000000300318013EDD07D60B6228FC30DC07D7
:10311000FF300318013EDD07FC30DC07FF300318E9
:10312000013EDD075C08B7005D08B800DA308400B6
:103130008A11E9248A15DE3084008A11E9248A156F
:1031400008005A08B7005B08B800CA3084008A112A
:10315000E9248A15CE3084008A11E9248A155A0898
:10316000B7005B08B800C030B707FF300318013E56
:10317000B807C23084008A11E9248A15C630840059
:103180008A11E9248A1583164A08F0004B08F100D9
:103190004C08F2004D08F3004208F9004308FA0019
:1031A0004408FB004508FC00831215258316F11B1B
:1031B000E2284208DA004308DB004408DC00450846
:1031C000DD00EA284A08DA004B08DB004C08DC0086
:1031D0004D08DD004608F0004708F1004808F200FD
:1031E0004908F3004E08F9004F08FA005008FB00A8
:1031F0005108FC00831215258316F11B0929460886
:10320000DE004708DF004808E0004908E1008312BB
:1032100008004E08DE004F08DF005008E0005108AB
:10322000E100831208007008F9007108FA007208C2
:10323000FB007308FC0008007008A5007108A400DA
:103240007208A3007308A20008002508F0002408F3
:10325000F1002308F2002208F30008002508F90015
:103260002408FA002308FB002208FC000800A1142F
:1032700083165608F9005708FA005808FB00590849
:10328000FC008312F101F2014D08F3004C08F40038
:103290000323152583167008B6007108B70072085D
:1032A000B8007308B9005208F9005308FA0054082E
:1032B000FB005508FC008312F101F2014D08F300F8
:1032C0004C08F4000323152583167008B20071081A
:1032D000B3007208B4007308B5005608F900570827
:1032E000FA005808FB005908FC005208F000530887
:1032F000F1005408F2005508F300831215258316D7
:103300007008AE007108AF007208B0007308B10019
:103310004208BA004308BB004408BC004508BD0091
:103320004A08BE004B08BF004C08C0004D08C10051
:103330008312A114EC2183167008AA007108AB0057
:103340007208AC007308AD004608BA004708BB001D
:103350004808BC004908BD004E08BE004F08BF0029
:103360005008C0005108C1008312EC218316700878
:10337000B6007108B7007208B8007308B9002A08CF
:10338000B2002B08B3002C08B4002D08B50083123E
:103390004008F4004108F300F201F1010323831611
:1033A0007008AE007108AF007208B0007308B10079
:1033B0005A08BA005B08BB005C08BC005D08BD0091
:1033C0005E08BE005F08BF006008C0006108C10061
:1033D0008312A110EC21080083163608F00037088C
:1033E000F1003808F2003908F3008312A118052A09
:1033F00083162E08F9002F08FA003008FB00310868
:10340000FC00831215258030F10683163A08F90076
:103410003B08FA003C08FB003D08FC008312222414
:103420001C2183163208F0003308F1003408F20042
:103430003508F3008312A1182A2A83162E08F900F2
:103440002F08FA003008FB003108FC008312152514
:103450008030F10683163E08F9003F08FA00400864
:10346000FB004108FC00831222241321252115258D
:103470001C21A118502A83163208F0003308F100ED
:103480003408F2003508F3003608F9003708FA006E
:103490003808FB003908FC008312152513215A2A2D
:1034A00083162E08F9002F08FA003008FB003108B7
:1034B000FC00831225218024080083221C21FB01AB
:1034C000FC018B30F9006030FA0025211525F11F31
:1034D000702A8B30F0006030F100F201F301080037
:1034E000F201F3018E30F0003030F1002E2115256D
:1034F000F11F812A8E30F0003030F100F201F3012B
:1035000008002521080013218A11F8248A151525A1
:103510008030F1065108F9005008FA004F08FB000E
:103520004E08FC0017255508F9005408FA00530806
:10353000FB005208FC00222413218A11F8248A156A
:10354000172508002018C02AA01C08008C30F9009C
:10355000FA01FB01FC011525F11FB22AF001F1016E
:10356000F201F3018E30F900FA01FB01FC01222483
:10357000B4258C30F900FA01FB01FC011725080085
:1035800013218E30F0004030F100F201F3011525D7
:1035900008009630F000FF01F11FD72AF309F20965
:1035A000F109F30A0319F20A0319F10AFF17EC01F2
:1035B0007108031DEC2A7208F1007308F200F30190
:1035C000EC157108031DEC2A7208F100F201EC11F0
:1035D0006C1671080319FD2A6C08F002031D031C08
:1035E000082D0310F11BFA2AF30DF20DF10DF00B6B
:1035F000F22A082DFF1FF1130034F101F201F3014B
:10360000F401F00100349E30F000FF01F11F142B93
:10361000F409F309F209F109F40A0319F30A031989
:10362000F20A0319F10AFF17EC017108031D342B8C
:103630007208F1007308F2007408F300F401EC154D
:103640007108031D342B7208F1007308F200F301B6
:10365000EC116C167108031D342B7208F100F20195
:10366000EC1571080319FD2A6C08F002031D031CF8
:10367000082D0310F11B432BF40DF30DF20DF10D8A
:10368000F00B3A2B082D7E1B731CFA2AF41FFA2A22
:10369000F30A0319F20A0319F10A031DFA2AF10CBD
:1036A000F20CF30CF00A0319752CFA2A70080319AE
:1036B00000347108FF00F1179630F002F01FA52BBF
:1036C000F009F00A08307002031C812BF000F30DA2
:1036D0007208F3007108F200F10108307002031C57
:1036E000812BF000F30D7208F300F2010830700234
:1036F000031C812BF000F30DF3017008031D031070
:103700008A2B700803198A2B0310F10CF20CF30CAE
:10371000F00B842B7E1B731C962B031C962BF30A39
:103720000319F20A0319F10AF11BA52BFF1F00343C
:10373000F109F209F309F30A0319F20A0319F10A6C
:103740000034F101F201F30100347E14FE1FFF3456
:10375000F101FF1FFF30F100F200F300FF0DF10C4B
:10376000FF34F4017008031900347108FF00F117E9
:103770009E30F002F01F152CF009F00A083070029C
:10378000031CEA2BF000F40D7308F4007208F30038
:103790007108F200F10108307002031CEA2BF000FE
:1037A000F40D7308F4007208F300F201083070029F
:1037B000031CEA2BF000F40D7308F400F301083049
:1037C0007002031CEA2BF000F40DF4017008031DD5
:1037D0000310F42B70080319F42B0310F10CF20CF6
:1037E000F30CF40CF00BED2B7E1B741C022C031C51
:1037F000022CF40A0319F30A0319F20A0319F10A55
:10380000F11BA52BFF1F0034F109F209F309F4099C
:10381000F40A0319F30A0319F20A0319F10A00342E
:10382000F101F201F301F40100347E14FE1FFF34B4
:10383000F101FF1FFF30F100F200F300F400FF0D73
:10384000F10CFF347008031D79080319FD2A710873
:103850007A06FF007908F0077E30031C332CF00253
:103860000318752C362CF002031C082D7108F40087
:103870007208F5007308F600F417FA170310F10147
:10388000F201F3011830EC00761C502C7C08F30791
:103890007B0803187B0FF2077A0803187A0FF107E9
:1038A000F10CF20CF30CF40CF50CF60C0310EC0B11
:1038B000442CF11B602CF40DF30DF20DF10DF0030F
:1038C0007E1B731C722CF41F722CF30A0319F20A6C
:1038D0000319F10A031D722CF10CF20CF30CF00A1F
:1038E0000319752CFF1FF1130034FE14FE1FFF3463
:1038F000FF30F000F100F200F300FF0DF10CFF3497
:1039000079080319132D70080319FD2A71087A0626
:10391000FF00F117FA17EC017108F4007208F500C6
:103920007308F6007C08F6027B08031C7B0FF50287
:103930007A08031C7A0FF402F401F501F601031C66
:10394000A82C0310F10CF20CF30CF40C0130EC0079
:103950007908F002031CB22C7E306C07F0070318C4
:10396000752CB72C7E306C07F007031C082D18301F
:10397000ED00F60DF50DF40DF30DF20DF10DEC0D5E
:103980007C08F3027B08031C7B0FF2027A08031CFD
:103990007A0FF1027A0DEC046C1CD02C7614DB2C1F
:1039A0007C08F3077B0803187B0FF2077A080318DB
:1039B0007A0AF1077610ED0BB92C7E1B761CFF2CD2
:1039C0000310F30DF20DF10DEC0D7C08F3027B08F2
:1039D000031C7B0FF2027A08031C7A0FF1027A0DA6
:1039E0006C040139F6070318F50A0319F40A031DDC
:1039F000FF2CF40CF50CF60CF00A0319752CFF1FC4
:103A0000F4137408F1007508F2007608F30000342E
:103A10007E15FE1FFF340130F000F101F201F301C9
:103A2000FF0DF10CFF34FE15FF348030FA067108EB
:103A30007A06EC00F401FD0170087902031C382DB0
:103A40007908F6007008F9007608F0007A08F600A8
:103A50007108FA007608F1007B08F6007208FB0096
:103A60007608F2007C08F6007308FC007608F30084
:103A70007908031900347108FF00F117FA17790863
:103A80007002F90003196B2D08307902031C612DB7
:103A9000F9007C08FD007B08FC007A08FB00FA01B5
:103AA00008307902031C612DF9007C08FD007B08B9
:103AB000FC00FB0108307902031C612D7F08F10036
:103AC0000034790803196B2D0310FA0CFB0CFC0C65
:103AD000FD0CF90B642DEC1F782DFD09FC09FB0989
:103AE000FA09FD0A0319FC0A0319FB0A0319FA0A69
:103AF0007D08F4077C0803187C0FF3077B08031884
:103B00007B0FF2077A0803187A0FF107EC1B912D4F
:103B1000031C432BF10CF20CF30CF40CF00F432BB1
:103B2000752C0318142BF409F309F209F109F40AAE
:103B30000319F30A0319F20A0319F10A8030FF0688
:103B4000D72A2608F9002708FA002808FB002908C8
:103B5000FC00831208007008A6007108A700720814
:103B6000A8007308A9000800F11B0800F008031959
:103B700008002111A111701C21157008EB007F3085
:103B8000EB02031CC72D0310EB0CEB07D02DA11586
:103B90006B09013EEB000310EB0C6B09803EEB0060
:103BA0007F30F000A600A701A801A9011C21053063
:103BB000AA002521A1258024A1251725F003AB25E6
:103BC000AA0BD92D6B08F900FA01FB01FC01222494
:103BD000211D08007F30F900A119F9033530FA00E2
:0C3BE0000430FB00F330FC00222408003D
:10420000000008000000000000002C002300E8006F
:1042100032002C002300E80020008300E8000000AA
:104220000000000000007F0000000000000000000F
:06424A003C002300E80027
:1042500032002C002300E80020008300E80000006A
:104260000000000000007F000000000000000000CF
:00000001FF
